{
  "contractName": "CrypticPunks",
  "abi": [
    {
      "inputs": [
        {
          "internalType": "string",
          "name": "_name",
          "type": "string"
        },
        {
          "internalType": "string",
          "name": "_symbol",
          "type": "string"
        },
        {
          "internalType": "uint256",
          "name": "_cost",
          "type": "uint256"
        },
        {
          "internalType": "uint256",
          "name": "_maxSupply",
          "type": "uint256"
        },
        {
          "internalType": "uint256",
          "name": "_allowMintingOn",
          "type": "uint256"
        },
        {
          "internalType": "string",
          "name": "_initBaseURI",
          "type": "string"
        },
        {
          "internalType": "string",
          "name": "_initNotRevealedUri",
          "type": "string"
        }
      ],
      "stateMutability": "nonpayable",
      "type": "constructor"
    },
    {
      "anonymous": false,
      "inputs": [
        {
          "indexed": true,
          "internalType": "address",
          "name": "owner",
          "type": "address"
        },
        {
          "indexed": true,
          "internalType": "address",
          "name": "approved",
          "type": "address"
        },
        {
          "indexed": true,
          "internalType": "uint256",
          "name": "tokenId",
          "type": "uint256"
        }
      ],
      "name": "Approval",
      "type": "event"
    },
    {
      "anonymous": false,
      "inputs": [
        {
          "indexed": true,
          "internalType": "address",
          "name": "owner",
          "type": "address"
        },
        {
          "indexed": true,
          "internalType": "address",
          "name": "operator",
          "type": "address"
        },
        {
          "indexed": false,
          "internalType": "bool",
          "name": "approved",
          "type": "bool"
        }
      ],
      "name": "ApprovalForAll",
      "type": "event"
    },
    {
      "anonymous": false,
      "inputs": [
        {
          "indexed": true,
          "internalType": "address",
          "name": "previousOwner",
          "type": "address"
        },
        {
          "indexed": true,
          "internalType": "address",
          "name": "newOwner",
          "type": "address"
        }
      ],
      "name": "OwnershipTransferred",
      "type": "event"
    },
    {
      "anonymous": false,
      "inputs": [
        {
          "indexed": true,
          "internalType": "address",
          "name": "from",
          "type": "address"
        },
        {
          "indexed": true,
          "internalType": "address",
          "name": "to",
          "type": "address"
        },
        {
          "indexed": true,
          "internalType": "uint256",
          "name": "tokenId",
          "type": "uint256"
        }
      ],
      "name": "Transfer",
      "type": "event"
    },
    {
      "inputs": [],
      "name": "allowMintingAfter",
      "outputs": [
        {
          "internalType": "uint256",
          "name": "",
          "type": "uint256"
        }
      ],
      "stateMutability": "view",
      "type": "function",
      "constant": true
    },
    {
      "inputs": [
        {
          "internalType": "address",
          "name": "to",
          "type": "address"
        },
        {
          "internalType": "uint256",
          "name": "tokenId",
          "type": "uint256"
        }
      ],
      "name": "approve",
      "outputs": [],
      "stateMutability": "nonpayable",
      "type": "function"
    },
    {
      "inputs": [
        {
          "internalType": "address",
          "name": "owner",
          "type": "address"
        }
      ],
      "name": "balanceOf",
      "outputs": [
        {
          "internalType": "uint256",
          "name": "",
          "type": "uint256"
        }
      ],
      "stateMutability": "view",
      "type": "function",
      "constant": true
    },
    {
      "inputs": [],
      "name": "baseExtension",
      "outputs": [
        {
          "internalType": "string",
          "name": "",
          "type": "string"
        }
      ],
      "stateMutability": "view",
      "type": "function",
      "constant": true
    },
    {
      "inputs": [],
      "name": "cost",
      "outputs": [
        {
          "internalType": "uint256",
          "name": "",
          "type": "uint256"
        }
      ],
      "stateMutability": "view",
      "type": "function",
      "constant": true
    },
    {
      "inputs": [
        {
          "internalType": "uint256",
          "name": "tokenId",
          "type": "uint256"
        }
      ],
      "name": "getApproved",
      "outputs": [
        {
          "internalType": "address",
          "name": "",
          "type": "address"
        }
      ],
      "stateMutability": "view",
      "type": "function",
      "constant": true
    },
    {
      "inputs": [
        {
          "internalType": "address",
          "name": "owner",
          "type": "address"
        },
        {
          "internalType": "address",
          "name": "operator",
          "type": "address"
        }
      ],
      "name": "isApprovedForAll",
      "outputs": [
        {
          "internalType": "bool",
          "name": "",
          "type": "bool"
        }
      ],
      "stateMutability": "view",
      "type": "function",
      "constant": true
    },
    {
      "inputs": [],
      "name": "isPaused",
      "outputs": [
        {
          "internalType": "bool",
          "name": "",
          "type": "bool"
        }
      ],
      "stateMutability": "view",
      "type": "function",
      "constant": true
    },
    {
      "inputs": [],
      "name": "isRevealed",
      "outputs": [
        {
          "internalType": "bool",
          "name": "",
          "type": "bool"
        }
      ],
      "stateMutability": "view",
      "type": "function",
      "constant": true
    },
    {
      "inputs": [],
      "name": "maxMintAmount",
      "outputs": [
        {
          "internalType": "uint256",
          "name": "",
          "type": "uint256"
        }
      ],
      "stateMutability": "view",
      "type": "function",
      "constant": true
    },
    {
      "inputs": [],
      "name": "maxSupply",
      "outputs": [
        {
          "internalType": "uint256",
          "name": "",
          "type": "uint256"
        }
      ],
      "stateMutability": "view",
      "type": "function",
      "constant": true
    },
    {
      "inputs": [],
      "name": "name",
      "outputs": [
        {
          "internalType": "string",
          "name": "",
          "type": "string"
        }
      ],
      "stateMutability": "view",
      "type": "function",
      "constant": true
    },
    {
      "inputs": [],
      "name": "notRevealedUri",
      "outputs": [
        {
          "internalType": "string",
          "name": "",
          "type": "string"
        }
      ],
      "stateMutability": "view",
      "type": "function",
      "constant": true
    },
    {
      "inputs": [],
      "name": "owner",
      "outputs": [
        {
          "internalType": "address",
          "name": "",
          "type": "address"
        }
      ],
      "stateMutability": "view",
      "type": "function",
      "constant": true
    },
    {
      "inputs": [
        {
          "internalType": "uint256",
          "name": "tokenId",
          "type": "uint256"
        }
      ],
      "name": "ownerOf",
      "outputs": [
        {
          "internalType": "address",
          "name": "",
          "type": "address"
        }
      ],
      "stateMutability": "view",
      "type": "function",
      "constant": true
    },
    {
      "inputs": [],
      "name": "renounceOwnership",
      "outputs": [],
      "stateMutability": "nonpayable",
      "type": "function"
    },
    {
      "inputs": [
        {
          "internalType": "address",
          "name": "from",
          "type": "address"
        },
        {
          "internalType": "address",
          "name": "to",
          "type": "address"
        },
        {
          "internalType": "uint256",
          "name": "tokenId",
          "type": "uint256"
        }
      ],
      "name": "safeTransferFrom",
      "outputs": [],
      "stateMutability": "nonpayable",
      "type": "function"
    },
    {
      "inputs": [
        {
          "internalType": "address",
          "name": "from",
          "type": "address"
        },
        {
          "internalType": "address",
          "name": "to",
          "type": "address"
        },
        {
          "internalType": "uint256",
          "name": "tokenId",
          "type": "uint256"
        },
        {
          "internalType": "bytes",
          "name": "data",
          "type": "bytes"
        }
      ],
      "name": "safeTransferFrom",
      "outputs": [],
      "stateMutability": "nonpayable",
      "type": "function"
    },
    {
      "inputs": [
        {
          "internalType": "address",
          "name": "operator",
          "type": "address"
        },
        {
          "internalType": "bool",
          "name": "approved",
          "type": "bool"
        }
      ],
      "name": "setApprovalForAll",
      "outputs": [],
      "stateMutability": "nonpayable",
      "type": "function"
    },
    {
      "inputs": [
        {
          "internalType": "bytes4",
          "name": "interfaceId",
          "type": "bytes4"
        }
      ],
      "name": "supportsInterface",
      "outputs": [
        {
          "internalType": "bool",
          "name": "",
          "type": "bool"
        }
      ],
      "stateMutability": "view",
      "type": "function",
      "constant": true
    },
    {
      "inputs": [],
      "name": "symbol",
      "outputs": [
        {
          "internalType": "string",
          "name": "",
          "type": "string"
        }
      ],
      "stateMutability": "view",
      "type": "function",
      "constant": true
    },
    {
      "inputs": [],
      "name": "timeDeployed",
      "outputs": [
        {
          "internalType": "uint256",
          "name": "",
          "type": "uint256"
        }
      ],
      "stateMutability": "view",
      "type": "function",
      "constant": true
    },
    {
      "inputs": [
        {
          "internalType": "uint256",
          "name": "index",
          "type": "uint256"
        }
      ],
      "name": "tokenByIndex",
      "outputs": [
        {
          "internalType": "uint256",
          "name": "",
          "type": "uint256"
        }
      ],
      "stateMutability": "view",
      "type": "function",
      "constant": true
    },
    {
      "inputs": [
        {
          "internalType": "address",
          "name": "owner",
          "type": "address"
        },
        {
          "internalType": "uint256",
          "name": "index",
          "type": "uint256"
        }
      ],
      "name": "tokenOfOwnerByIndex",
      "outputs": [
        {
          "internalType": "uint256",
          "name": "",
          "type": "uint256"
        }
      ],
      "stateMutability": "view",
      "type": "function",
      "constant": true
    },
    {
      "inputs": [],
      "name": "totalSupply",
      "outputs": [
        {
          "internalType": "uint256",
          "name": "",
          "type": "uint256"
        }
      ],
      "stateMutability": "view",
      "type": "function",
      "constant": true
    },
    {
      "inputs": [
        {
          "internalType": "address",
          "name": "from",
          "type": "address"
        },
        {
          "internalType": "address",
          "name": "to",
          "type": "address"
        },
        {
          "internalType": "uint256",
          "name": "tokenId",
          "type": "uint256"
        }
      ],
      "name": "transferFrom",
      "outputs": [],
      "stateMutability": "nonpayable",
      "type": "function"
    },
    {
      "inputs": [
        {
          "internalType": "address",
          "name": "newOwner",
          "type": "address"
        }
      ],
      "name": "transferOwnership",
      "outputs": [],
      "stateMutability": "nonpayable",
      "type": "function"
    },
    {
      "inputs": [
        {
          "internalType": "uint256",
          "name": "_mintAmount",
          "type": "uint256"
        }
      ],
      "name": "mint",
      "outputs": [],
      "stateMutability": "payable",
      "type": "function",
      "payable": true
    },
    {
      "inputs": [
        {
          "internalType": "address",
          "name": "_owner",
          "type": "address"
        }
      ],
      "name": "walletOfOwner",
      "outputs": [
        {
          "internalType": "uint256[]",
          "name": "",
          "type": "uint256[]"
        }
      ],
      "stateMutability": "view",
      "type": "function",
      "constant": true
    },
    {
      "inputs": [
        {
          "internalType": "uint256",
          "name": "tokenId",
          "type": "uint256"
        }
      ],
      "name": "tokenURI",
      "outputs": [
        {
          "internalType": "string",
          "name": "",
          "type": "string"
        }
      ],
      "stateMutability": "view",
      "type": "function",
      "constant": true
    },
    {
      "inputs": [],
      "name": "getSecondsUntilMinting",
      "outputs": [
        {
          "internalType": "uint256",
          "name": "",
          "type": "uint256"
        }
      ],
      "stateMutability": "view",
      "type": "function",
      "constant": true
    },
    {
      "inputs": [
        {
          "internalType": "bool",
          "name": "_state",
          "type": "bool"
        }
      ],
      "name": "setIsRevealed",
      "outputs": [],
      "stateMutability": "nonpayable",
      "type": "function"
    },
    {
      "inputs": [
        {
          "internalType": "uint256",
          "name": "_newCost",
          "type": "uint256"
        }
      ],
      "name": "setCost",
      "outputs": [],
      "stateMutability": "nonpayable",
      "type": "function"
    },
    {
      "inputs": [
        {
          "internalType": "uint256",
          "name": "_newmaxMintAmount",
          "type": "uint256"
        }
      ],
      "name": "setmaxMintAmount",
      "outputs": [],
      "stateMutability": "nonpayable",
      "type": "function"
    },
    {
      "inputs": [
        {
          "internalType": "string",
          "name": "_notRevealedURI",
          "type": "string"
        }
      ],
      "name": "setNotRevealedURI",
      "outputs": [],
      "stateMutability": "nonpayable",
      "type": "function"
    },
    {
      "inputs": [
        {
          "internalType": "string",
          "name": "_newBaseURI",
          "type": "string"
        }
      ],
      "name": "setBaseURI",
      "outputs": [],
      "stateMutability": "nonpayable",
      "type": "function"
    },
    {
      "inputs": [
        {
          "internalType": "string",
          "name": "_newBaseExtension",
          "type": "string"
        }
      ],
      "name": "setBaseExtension",
      "outputs": [],
      "stateMutability": "nonpayable",
      "type": "function"
    },
    {
      "inputs": [
        {
          "internalType": "bool",
          "name": "_state",
          "type": "bool"
        }
      ],
      "name": "setIsPaused",
      "outputs": [],
      "stateMutability": "nonpayable",
      "type": "function"
    },
    {
      "inputs": [],
      "name": "withdraw",
      "outputs": [],
      "stateMutability": "payable",
      "type": "function",
      "payable": true
    }
  ],
  "bytecode": "0x60806040526040518060400160405280600581526020017f2e6a736f6e000000000000000000000000000000000000000000000000000000815250600c9080519060200190620000519291906200035e565b506001600f5560006011556000601260006101000a81548160ff0219169083151502179055506001601260016101000a81548160ff0219169083151502179055503480156200009f57600080fd5b5060405162004c9638038062004c968339818101604052810190620000c59190620005e6565b86868160009080519060200190620000df9291906200035e565b508060019080519060200190620000f89291906200035e565b5050506200011b6200010f6200017d60201b60201c565b6200018560201b60201c565b428311156200013957428362000132919062000744565b6011819055505b84600d8190555083600e81905550426010819055506200015f826200024b60201b60201c565b62000170816200027760201b60201c565b5050505050505062000867565b600033905090565b6000600a60009054906101000a900473ffffffffffffffffffffffffffffffffffffffff16905081600a60006101000a81548173ffffffffffffffffffffffffffffffffffffffff021916908373ffffffffffffffffffffffffffffffffffffffff1602179055508173ffffffffffffffffffffffffffffffffffffffff168173ffffffffffffffffffffffffffffffffffffffff167f8be0079c531659141344cd1fd0a4f28419497f9722a3daafe3b4186f6b6457e060405160405180910390a35050565b6200025b620002a360201b60201c565b80600b9080519060200190620002739291906200035e565b5050565b62000287620002a360201b60201c565b80601390805190602001906200029f9291906200035e565b5050565b620002b36200017d60201b60201c565b73ffffffffffffffffffffffffffffffffffffffff16620002d96200033460201b60201c565b73ffffffffffffffffffffffffffffffffffffffff161462000332576040517f08c379a00000000000000000000000000000000000000000000000000000000081526004016200032990620007e0565b60405180910390fd5b565b6000600a60009054906101000a900473ffffffffffffffffffffffffffffffffffffffff16905090565b8280546200036c9062000831565b90600052602060002090601f016020900481019282620003905760008555620003dc565b82601f10620003ab57805160ff1916838001178555620003dc565b82800160010185558215620003dc579182015b82811115620003db578251825591602001919060010190620003be565b5b509050620003eb9190620003ef565b5090565b5b808211156200040a576000816000905550600101620003f0565b5090565b6000604051905090565b600080fd5b600080fd5b600080fd5b600080fd5b6000601f19601f8301169050919050565b7f4e487b7100000000000000000000000000000000000000000000000000000000600052604160045260246000fd5b62000477826200042c565b810181811067ffffffffffffffff821117156200049957620004986200043d565b5b80604052505050565b6000620004ae6200040e565b9050620004bc82826200046c565b919050565b600067ffffffffffffffff821115620004df57620004de6200043d565b5b620004ea826200042c565b9050602081019050919050565b60005b8381101562000517578082015181840152602081019050620004fa565b8381111562000527576000848401525b50505050565b6000620005446200053e84620004c1565b620004a2565b90508281526020810184848401111562000563576200056262000427565b5b62000570848285620004f7565b509392505050565b600082601f83011262000590576200058f62000422565b5b8151620005a28482602086016200052d565b91505092915050565b6000819050919050565b620005c081620005ab565b8114620005cc57600080fd5b50565b600081519050620005e081620005b5565b92915050565b600080600080600080600060e0888a03121562000608576200060762000418565b5b600088015167ffffffffffffffff8111156200062957620006286200041d565b5b620006378a828b0162000578565b975050602088015167ffffffffffffffff8111156200065b576200065a6200041d565b5b620006698a828b0162000578565b96505060406200067c8a828b01620005cf565b95505060606200068f8a828b01620005cf565b9450506080620006a28a828b01620005cf565b93505060a088015167ffffffffffffffff811115620006c657620006c56200041d565b5b620006d48a828b0162000578565b92505060c088015167ffffffffffffffff811115620006f857620006f76200041d565b5b620007068a828b0162000578565b91505092959891949750929550565b7f4e487b7100000000000000000000000000000000000000000000000000000000600052601160045260246000fd5b60006200075182620005ab565b91506200075e83620005ab565b92508282101562000774576200077362000715565b5b828203905092915050565b600082825260208201905092915050565b7f4f776e61626c653a2063616c6c6572206973206e6f7420746865206f776e6572600082015250565b6000620007c86020836200077f565b9150620007d58262000790565b602082019050919050565b60006020820190508181036000830152620007fb81620007b9565b9050919050565b7f4e487b7100000000000000000000000000000000000000000000000000000000600052602260045260246000fd5b600060028204905060018216806200084a57607f821691505b6020821081141562000861576200086062000802565b5b50919050565b61441f80620008776000396000f3fe6080604052600436106102305760003560e01c806355f804b31161012e578063a75052cb116100ab578063d5abeb011161006f578063d5abeb0114610823578063da3ef23f1461084e578063e985e9c514610877578063f2c4ce1e146108b4578063f2fde38b146108dd57610230565b8063a75052cb1461073c578063b187bd2614610767578063b88d4fde14610792578063c6682862146107bb578063c87b56dd146107e657610230565b8063872bdcdb116100f2578063872bdcdb146106765780638da5cb5b146106a157806395d89b41146106cc578063a0712d68146106f7578063a22cb4651461071357610230565b806355f804b3146105935780636352211e146105bc57806370a08231146105f9578063715018a6146106365780637f00c7a61461064d57610230565b806323b872dd116101bc578063438b630011610180578063438b63001461049c57806344a0d68a146104d957806349a5980a146105025780634f6ccce71461052b57806354214f691461056857610230565b806323b872dd146103da578063240976bf146104035780632f745c591461042c5780633ccfd60b1461046957806342842e0e1461047357610230565b8063095ea7b311610203578063095ea7b31461030557806313faede61461032e57806318160ddd1461035957806319188c3514610384578063239c70ae146103af57610230565b806301ffc9a71461023557806306fdde0314610272578063081812fc1461029d578063081c8c44146102da575b600080fd5b34801561024157600080fd5b5061025c60048036038101906102579190612e5b565b610906565b6040516102699190612ea3565b60405180910390f35b34801561027e57600080fd5b50610287610980565b6040516102949190612f57565b60405180910390f35b3480156102a957600080fd5b506102c460048036038101906102bf9190612faf565b610a12565b6040516102d1919061301d565b60405180910390f35b3480156102e657600080fd5b506102ef610a58565b6040516102fc9190612f57565b60405180910390f35b34801561031157600080fd5b5061032c60048036038101906103279190613064565b610ae6565b005b34801561033a57600080fd5b50610343610bfe565b60405161035091906130b3565b60405180910390f35b34801561036557600080fd5b5061036e610c04565b60405161037b91906130b3565b60405180910390f35b34801561039057600080fd5b50610399610c11565b6040516103a691906130b3565b60405180910390f35b3480156103bb57600080fd5b506103c4610c17565b6040516103d191906130b3565b60405180910390f35b3480156103e657600080fd5b5061040160048036038101906103fc91906130ce565b610c1d565b005b34801561040f57600080fd5b5061042a6004803603810190610425919061314d565b610c7d565b005b34801561043857600080fd5b50610453600480360381019061044e9190613064565b610ca2565b60405161046091906130b3565b60405180910390f35b610471610d47565b005b34801561047f57600080fd5b5061049a600480360381019061049591906130ce565b610dc8565b005b3480156104a857600080fd5b506104c360048036038101906104be919061317a565b610de8565b6040516104d09190613265565b60405180910390f35b3480156104e557600080fd5b5061050060048036038101906104fb9190612faf565b610e96565b005b34801561050e57600080fd5b506105296004803603810190610524919061314d565b610ea8565b005b34801561053757600080fd5b50610552600480360381019061054d9190612faf565b610ecd565b60405161055f91906130b3565b60405180910390f35b34801561057457600080fd5b5061057d610f3e565b60405161058a9190612ea3565b60405180910390f35b34801561059f57600080fd5b506105ba60048036038101906105b591906133bc565b610f51565b005b3480156105c857600080fd5b506105e360048036038101906105de9190612faf565b610f73565b6040516105f0919061301d565b60405180910390f35b34801561060557600080fd5b50610620600480360381019061061b919061317a565b610ffa565b60405161062d91906130b3565b60405180910390f35b34801561064257600080fd5b5061064b6110b2565b005b34801561065957600080fd5b50610674600480360381019061066f9190612faf565b6110c6565b005b34801561068257600080fd5b5061068b6110d8565b60405161069891906130b3565b60405180910390f35b3480156106ad57600080fd5b506106b66110de565b6040516106c3919061301d565b60405180910390f35b3480156106d857600080fd5b506106e1611108565b6040516106ee9190612f57565b60405180910390f35b610711600480360381019061070c9190612faf565b61119a565b005b34801561071f57600080fd5b5061073a60048036038101906107359190613405565b611323565b005b34801561074857600080fd5b50610751611339565b60405161075e91906130b3565b60405180910390f35b34801561077357600080fd5b5061077c61137c565b6040516107899190612ea3565b60405180910390f35b34801561079e57600080fd5b506107b960048036038101906107b491906134e6565b61138f565b005b3480156107c757600080fd5b506107d06113f1565b6040516107dd9190612f57565b60405180910390f35b3480156107f257600080fd5b5061080d60048036038101906108089190612faf565b61147f565b60405161081a9190612f57565b60405180910390f35b34801561082f57600080fd5b506108386115d8565b60405161084591906130b3565b60405180910390f35b34801561085a57600080fd5b50610875600480360381019061087091906133bc565b6115de565b005b34801561088357600080fd5b5061089e60048036038101906108999190613569565b611600565b6040516108ab9190612ea3565b60405180910390f35b3480156108c057600080fd5b506108db60048036038101906108d691906133bc565b611694565b005b3480156108e957600080fd5b5061090460048036038101906108ff919061317a565b6116b6565b005b60007f780e9d63000000000000000000000000000000000000000000000000000000007bffffffffffffffffffffffffffffffffffffffffffffffffffffffff1916827bffffffffffffffffffffffffffffffffffffffffffffffffffffffff1916148061097957506109788261173a565b5b9050919050565b60606000805461098f906135d8565b80601f01602080910402602001604051908101604052809291908181526020018280546109bb906135d8565b8015610a085780601f106109dd57610100808354040283529160200191610a08565b820191906000526020600020905b8154815290600101906020018083116109eb57829003601f168201915b5050505050905090565b6000610a1d8261181c565b6004600083815260200190815260200160002060009054906101000a900473ffffffffffffffffffffffffffffffffffffffff169050919050565b60138054610a65906135d8565b80601f0160208091040260200160405190810160405280929190818152602001828054610a91906135d8565b8015610ade5780601f10610ab357610100808354040283529160200191610ade565b820191906000526020600020905b815481529060010190602001808311610ac157829003601f168201915b505050505081565b6000610af182610f73565b90508073ffffffffffffffffffffffffffffffffffffffff168373ffffffffffffffffffffffffffffffffffffffff161415610b62576040517f08c379a0000000000000000000000000000000000000000000000000000000008152600401610b599061367c565b60405180910390fd5b8073ffffffffffffffffffffffffffffffffffffffff16610b81611867565b73ffffffffffffffffffffffffffffffffffffffff161480610bb05750610baf81610baa611867565b611600565b5b610bef576040517f08c379a0000000000000000000000000000000000000000000000000000000008152600401610be69061370e565b60405180910390fd5b610bf9838361186f565b505050565b600d5481565b6000600880549050905090565b60105481565b600f5481565b610c2e610c28611867565b82611928565b610c6d576040517f08c379a0000000000000000000000000000000000000000000000000000000008152600401610c64906137a0565b60405180910390fd5b610c788383836119bd565b505050565b610c85611cb7565b80601260006101000a81548160ff02191690831515021790555050565b6000610cad83610ffa565b8210610cee576040517f08c379a0000000000000000000000000000000000000000000000000000000008152600401610ce590613832565b60405180910390fd5b600660008473ffffffffffffffffffffffffffffffffffffffff1673ffffffffffffffffffffffffffffffffffffffff168152602001908152602001600020600083815260200190815260200160002054905092915050565b610d4f611cb7565b60003373ffffffffffffffffffffffffffffffffffffffff1647604051610d7590613883565b60006040518083038185875af1925050503d8060008114610db2576040519150601f19603f3d011682016040523d82523d6000602084013e610db7565b606091505b5050905080610dc557600080fd5b50565b610de38383836040518060200160405280600081525061138f565b505050565b60606000610df583610ffa565b905060008167ffffffffffffffff811115610e1357610e12613291565b5b604051908082528060200260200182016040528015610e415781602001602082028036833780820191505090505b50905060005b82811015610e8b57610e598582610ca2565b828281518110610e6c57610e6b613898565b5b6020026020010181815250508080610e83906138f6565b915050610e47565b508092505050919050565b610e9e611cb7565b80600d8190555050565b610eb0611cb7565b80601260016101000a81548160ff02191690831515021790555050565b6000610ed7610c04565b8210610f18576040517f08c379a0000000000000000000000000000000000000000000000000000000008152600401610f0f906139b1565b60405180910390fd5b60088281548110610f2c57610f2b613898565b5b90600052602060002001549050919050565b601260019054906101000a900460ff1681565b610f59611cb7565b80600b9080519060200190610f6f929190612d4c565b5050565b600080610f7f83611d35565b9050600073ffffffffffffffffffffffffffffffffffffffff168173ffffffffffffffffffffffffffffffffffffffff161415610ff1576040517f08c379a0000000000000000000000000000000000000000000000000000000008152600401610fe890613a1d565b60405180910390fd5b80915050919050565b60008073ffffffffffffffffffffffffffffffffffffffff168273ffffffffffffffffffffffffffffffffffffffff16141561106b576040517f08c379a000000000000000000000000000000000000000000000000000000000815260040161106290613aaf565b60405180910390fd5b600360008373ffffffffffffffffffffffffffffffffffffffff1673ffffffffffffffffffffffffffffffffffffffff168152602001908152602001600020549050919050565b6110ba611cb7565b6110c46000611d72565b565b6110ce611cb7565b80600f8190555050565b60115481565b6000600a60009054906101000a900473ffffffffffffffffffffffffffffffffffffffff16905090565b606060018054611117906135d8565b80601f0160208091040260200160405190810160405280929190818152602001828054611143906135d8565b80156111905780601f1061116557610100808354040283529160200191611190565b820191906000526020600020905b81548152906001019060200180831161117357829003601f168201915b5050505050905090565b6011546010546111aa9190613acf565b4210156111ec576040517f08c379a00000000000000000000000000000000000000000000000000000000081526004016111e390613b71565b60405180910390fd5b60006111f733610ffa565b14611237576040517f08c379a000000000000000000000000000000000000000000000000000000000815260040161122e90613bdd565b60405180910390fd5b6000611241610c04565b9050601260009054906101000a900460ff161561125d57600080fd5b6000821161126a57600080fd5b600f5482111561127957600080fd5b600e5482826112889190613acf565b111561129357600080fd5b61129b6110de565b73ffffffffffffffffffffffffffffffffffffffff163373ffffffffffffffffffffffffffffffffffffffff16146112e85781600d546112db9190613bfd565b3410156112e757600080fd5b5b6000600190505b82811161131e5761130b3382846113069190613acf565b611e38565b8080611316906138f6565b9150506112ef565b505050565b61133561132e611867565b8383611e56565b5050565b600060115460105461134b9190613acf565b42101561137457426011546010546113639190613acf565b61136d9190613c57565b9050611379565b600090505b90565b601260009054906101000a900460ff1681565b6113a061139a611867565b83611928565b6113df576040517f08c379a00000000000000000000000000000000000000000000000000000000081526004016113d6906137a0565b60405180910390fd5b6113eb84848484611fc3565b50505050565b600c80546113fe906135d8565b80601f016020809104026020016040519081016040528092919081815260200182805461142a906135d8565b80156114775780601f1061144c57610100808354040283529160200191611477565b820191906000526020600020905b81548152906001019060200180831161145a57829003601f168201915b505050505081565b606061148a8261201f565b6114c9576040517f08c379a00000000000000000000000000000000000000000000000000000000081526004016114c090613cfd565b60405180910390fd5b60001515601260019054906101000a900460ff161515141561157757601380546114f2906135d8565b80601f016020809104026020016040519081016040528092919081815260200182805461151e906135d8565b801561156b5780601f106115405761010080835404028352916020019161156b565b820191906000526020600020905b81548152906001019060200180831161154e57829003601f168201915b505050505090506115d3565b6000611581612060565b905060008151116115a157604051806020016040528060008152506115cf565b806115ab846120f2565b600c6040516020016115bf93929190613ded565b6040516020818303038152906040525b9150505b919050565b600e5481565b6115e6611cb7565b80600c90805190602001906115fc929190612d4c565b5050565b6000600560008473ffffffffffffffffffffffffffffffffffffffff1673ffffffffffffffffffffffffffffffffffffffff16815260200190815260200160002060008373ffffffffffffffffffffffffffffffffffffffff1673ffffffffffffffffffffffffffffffffffffffff16815260200190815260200160002060009054906101000a900460ff16905092915050565b61169c611cb7565b80601390805190602001906116b2929190612d4c565b5050565b6116be611cb7565b600073ffffffffffffffffffffffffffffffffffffffff168173ffffffffffffffffffffffffffffffffffffffff16141561172e576040517f08c379a000000000000000000000000000000000000000000000000000000000815260040161172590613e90565b60405180910390fd5b61173781611d72565b50565b60007f80ac58cd000000000000000000000000000000000000000000000000000000007bffffffffffffffffffffffffffffffffffffffffffffffffffffffff1916827bffffffffffffffffffffffffffffffffffffffffffffffffffffffff1916148061180557507f5b5e139f000000000000000000000000000000000000000000000000000000007bffffffffffffffffffffffffffffffffffffffffffffffffffffffff1916827bffffffffffffffffffffffffffffffffffffffffffffffffffffffff1916145b806118155750611814826121ca565b5b9050919050565b6118258161201f565b611864576040517f08c379a000000000000000000000000000000000000000000000000000000000815260040161185b90613a1d565b60405180910390fd5b50565b600033905090565b816004600083815260200190815260200160002060006101000a81548173ffffffffffffffffffffffffffffffffffffffff021916908373ffffffffffffffffffffffffffffffffffffffff160217905550808273ffffffffffffffffffffffffffffffffffffffff166118e283610f73565b73ffffffffffffffffffffffffffffffffffffffff167f8c5be1e5ebec7d5bd14f71427d1e84f3dd0314c0f7b2291e5b200ac8c7c3b92560405160405180910390a45050565b60008061193483610f73565b90508073ffffffffffffffffffffffffffffffffffffffff168473ffffffffffffffffffffffffffffffffffffffff16148061197657506119758185611600565b5b806119b457508373ffffffffffffffffffffffffffffffffffffffff1661199c84610a12565b73ffffffffffffffffffffffffffffffffffffffff16145b91505092915050565b8273ffffffffffffffffffffffffffffffffffffffff166119dd82610f73565b73ffffffffffffffffffffffffffffffffffffffff1614611a33576040517f08c379a0000000000000000000000000000000000000000000000000000000008152600401611a2a90613f22565b60405180910390fd5b600073ffffffffffffffffffffffffffffffffffffffff168273ffffffffffffffffffffffffffffffffffffffff161415611aa3576040517f08c379a0000000000000000000000000000000000000000000000000000000008152600401611a9a90613fb4565b60405180910390fd5b611ab08383836001612234565b8273ffffffffffffffffffffffffffffffffffffffff16611ad082610f73565b73ffffffffffffffffffffffffffffffffffffffff1614611b26576040517f08c379a0000000000000000000000000000000000000000000000000000000008152600401611b1d90613f22565b60405180910390fd5b6004600082815260200190815260200160002060006101000a81549073ffffffffffffffffffffffffffffffffffffffff02191690556001600360008573ffffffffffffffffffffffffffffffffffffffff1673ffffffffffffffffffffffffffffffffffffffff168152602001908152602001600020600082825403925050819055506001600360008473ffffffffffffffffffffffffffffffffffffffff1673ffffffffffffffffffffffffffffffffffffffff16815260200190815260200160002060008282540192505081905550816002600083815260200190815260200160002060006101000a81548173ffffffffffffffffffffffffffffffffffffffff021916908373ffffffffffffffffffffffffffffffffffffffff160217905550808273ffffffffffffffffffffffffffffffffffffffff168473ffffffffffffffffffffffffffffffffffffffff167fddf252ad1be2c89b69c2b068fc378daa952ba7f163c4a11628f55a4df523b3ef60405160405180910390a4611cb28383836001612394565b505050565b611cbf611867565b73ffffffffffffffffffffffffffffffffffffffff16611cdd6110de565b73ffffffffffffffffffffffffffffffffffffffff1614611d33576040517f08c379a0000000000000000000000000000000000000000000000000000000008152600401611d2a90614020565b60405180910390fd5b565b60006002600083815260200190815260200160002060009054906101000a900473ffffffffffffffffffffffffffffffffffffffff169050919050565b6000600a60009054906101000a900473ffffffffffffffffffffffffffffffffffffffff16905081600a60006101000a81548173ffffffffffffffffffffffffffffffffffffffff021916908373ffffffffffffffffffffffffffffffffffffffff1602179055508173ffffffffffffffffffffffffffffffffffffffff168173ffffffffffffffffffffffffffffffffffffffff167f8be0079c531659141344cd1fd0a4f28419497f9722a3daafe3b4186f6b6457e060405160405180910390a35050565b611e5282826040518060200160405280600081525061239a565b5050565b8173ffffffffffffffffffffffffffffffffffffffff168373ffffffffffffffffffffffffffffffffffffffff161415611ec5576040517f08c379a0000000000000000000000000000000000000000000000000000000008152600401611ebc9061408c565b60405180910390fd5b80600560008573ffffffffffffffffffffffffffffffffffffffff1673ffffffffffffffffffffffffffffffffffffffff16815260200190815260200160002060008473ffffffffffffffffffffffffffffffffffffffff1673ffffffffffffffffffffffffffffffffffffffff16815260200190815260200160002060006101000a81548160ff0219169083151502179055508173ffffffffffffffffffffffffffffffffffffffff168373ffffffffffffffffffffffffffffffffffffffff167f17307eab39ab6107e8899845ad3d59bd9653f200f220920489ca2b5937696c3183604051611fb69190612ea3565b60405180910390a3505050565b611fce8484846119bd565b611fda848484846123f5565b612019576040517f08c379a00000000000000000000000000000000000000000000000000000000081526004016120109061411e565b60405180910390fd5b50505050565b60008073ffffffffffffffffffffffffffffffffffffffff1661204183611d35565b73ffffffffffffffffffffffffffffffffffffffff1614159050919050565b6060600b805461206f906135d8565b80601f016020809104026020016040519081016040528092919081815260200182805461209b906135d8565b80156120e85780601f106120bd576101008083540402835291602001916120e8565b820191906000526020600020905b8154815290600101906020018083116120cb57829003601f168201915b5050505050905090565b6060600060016121018461258c565b01905060008167ffffffffffffffff8111156121205761211f613291565b5b6040519080825280601f01601f1916602001820160405280156121525781602001600182028036833780820191505090505b509050600082602001820190505b6001156121bf578080600190039150507f3031323334353637383961626364656600000000000000000000000000000000600a86061a8153600a85816121a9576121a861413e565b5b04945060008514156121ba576121bf565b612160565b819350505050919050565b60007f01ffc9a7000000000000000000000000000000000000000000000000000000007bffffffffffffffffffffffffffffffffffffffffffffffffffffffff1916827bffffffffffffffffffffffffffffffffffffffffffffffffffffffff1916149050919050565b612240848484846126df565b6001811115612284576040517f08c379a000000000000000000000000000000000000000000000000000000000815260040161227b906141df565b60405180910390fd5b6000829050600073ffffffffffffffffffffffffffffffffffffffff168573ffffffffffffffffffffffffffffffffffffffff1614156122cc576122c781612805565b61230b565b8373ffffffffffffffffffffffffffffffffffffffff168573ffffffffffffffffffffffffffffffffffffffff161461230a57612309858261284e565b5b5b600073ffffffffffffffffffffffffffffffffffffffff168473ffffffffffffffffffffffffffffffffffffffff16141561234e57612349816129bb565b61238d565b8473ffffffffffffffffffffffffffffffffffffffff168473ffffffffffffffffffffffffffffffffffffffff161461238c5761238b8482612a8c565b5b5b5050505050565b50505050565b6123a48383612b0b565b6123b160008484846123f5565b6123f0576040517f08c379a00000000000000000000000000000000000000000000000000000000081526004016123e79061411e565b60405180910390fd5b505050565b60006124168473ffffffffffffffffffffffffffffffffffffffff16612d29565b1561257f578373ffffffffffffffffffffffffffffffffffffffff1663150b7a0261243f611867565b8786866040518563ffffffff1660e01b81526004016124619493929190614254565b602060405180830381600087803b15801561247b57600080fd5b505af19250505080156124ac57506040513d601f19601f820116820180604052508101906124a991906142b5565b60015b61252f573d80600081146124dc576040519150601f19603f3d011682016040523d82523d6000602084013e6124e1565b606091505b50600081511415612527576040517f08c379a000000000000000000000000000000000000000000000000000000000815260040161251e9061411e565b60405180910390fd5b805181602001fd5b63150b7a0260e01b7bffffffffffffffffffffffffffffffffffffffffffffffffffffffff1916817bffffffffffffffffffffffffffffffffffffffffffffffffffffffff191614915050612584565b600190505b949350505050565b600080600090507a184f03e93ff9f4daa797ed6e38ed64bf6a1f01000000000000000083106125ea577a184f03e93ff9f4daa797ed6e38ed64bf6a1f01000000000000000083816125e0576125df61413e565b5b0492506040810190505b6d04ee2d6d415b85acef81000000008310612627576d04ee2d6d415b85acef8100000000838161261d5761261c61413e565b5b0492506020810190505b662386f26fc10000831061265657662386f26fc10000838161264c5761264b61413e565b5b0492506010810190505b6305f5e100831061267f576305f5e10083816126755761267461413e565b5b0492506008810190505b61271083106126a457612710838161269a5761269961413e565b5b0492506004810190505b606483106126c757606483816126bd576126bc61413e565b5b0492506002810190505b600a83106126d6576001810190505b80915050919050565b60018111156127ff57600073ffffffffffffffffffffffffffffffffffffffff168473ffffffffffffffffffffffffffffffffffffffff16146127735780600360008673ffffffffffffffffffffffffffffffffffffffff1673ffffffffffffffffffffffffffffffffffffffff168152602001908152602001600020600082825461276b9190613c57565b925050819055505b600073ffffffffffffffffffffffffffffffffffffffff168373ffffffffffffffffffffffffffffffffffffffff16146127fe5780600360008573ffffffffffffffffffffffffffffffffffffffff1673ffffffffffffffffffffffffffffffffffffffff16815260200190815260200160002060008282546127f69190613acf565b925050819055505b5b50505050565b6008805490506009600083815260200190815260200160002081905550600881908060018154018082558091505060019003906000526020600020016000909190919091505550565b6000600161285b84610ffa565b6128659190613c57565b905060006007600084815260200190815260200160002054905081811461294a576000600660008673ffffffffffffffffffffffffffffffffffffffff1673ffffffffffffffffffffffffffffffffffffffff168152602001908152602001600020600084815260200190815260200160002054905080600660008773ffffffffffffffffffffffffffffffffffffffff1673ffffffffffffffffffffffffffffffffffffffff168152602001908152602001600020600084815260200190815260200160002081905550816007600083815260200190815260200160002081905550505b6007600084815260200190815260200160002060009055600660008573ffffffffffffffffffffffffffffffffffffffff1673ffffffffffffffffffffffffffffffffffffffff16815260200190815260200160002060008381526020019081526020016000206000905550505050565b600060016008805490506129cf9190613c57565b90506000600960008481526020019081526020016000205490506000600883815481106129ff576129fe613898565b5b906000526020600020015490508060088381548110612a2157612a20613898565b5b906000526020600020018190555081600960008381526020019081526020016000208190555060096000858152602001908152602001600020600090556008805480612a7057612a6f6142e2565b5b6001900381819060005260206000200160009055905550505050565b6000612a9783610ffa565b905081600660008573ffffffffffffffffffffffffffffffffffffffff1673ffffffffffffffffffffffffffffffffffffffff168152602001908152602001600020600083815260200190815260200160002081905550806007600084815260200190815260200160002081905550505050565b600073ffffffffffffffffffffffffffffffffffffffff168273ffffffffffffffffffffffffffffffffffffffff161415612b7b576040517f08c379a0000000000000000000000000000000000000000000000000000000008152600401612b729061435d565b60405180910390fd5b612b848161201f565b15612bc4576040517f08c379a0000000000000000000000000000000000000000000000000000000008152600401612bbb906143c9565b60405180910390fd5b612bd2600083836001612234565b612bdb8161201f565b15612c1b576040517f08c379a0000000000000000000000000000000000000000000000000000000008152600401612c12906143c9565b60405180910390fd5b6001600360008473ffffffffffffffffffffffffffffffffffffffff1673ffffffffffffffffffffffffffffffffffffffff16815260200190815260200160002060008282540192505081905550816002600083815260200190815260200160002060006101000a81548173ffffffffffffffffffffffffffffffffffffffff021916908373ffffffffffffffffffffffffffffffffffffffff160217905550808273ffffffffffffffffffffffffffffffffffffffff16600073ffffffffffffffffffffffffffffffffffffffff167fddf252ad1be2c89b69c2b068fc378daa952ba7f163c4a11628f55a4df523b3ef60405160405180910390a4612d25600083836001612394565b5050565b6000808273ffffffffffffffffffffffffffffffffffffffff163b119050919050565b828054612d58906135d8565b90600052602060002090601f016020900481019282612d7a5760008555612dc1565b82601f10612d9357805160ff1916838001178555612dc1565b82800160010185558215612dc1579182015b82811115612dc0578251825591602001919060010190612da5565b5b509050612dce9190612dd2565b5090565b5b80821115612deb576000816000905550600101612dd3565b5090565b6000604051905090565b600080fd5b600080fd5b60007fffffffff0000000000000000000000000000000000000000000000000000000082169050919050565b612e3881612e03565b8114612e4357600080fd5b50565b600081359050612e5581612e2f565b92915050565b600060208284031215612e7157612e70612df9565b5b6000612e7f84828501612e46565b91505092915050565b60008115159050919050565b612e9d81612e88565b82525050565b6000602082019050612eb86000830184612e94565b92915050565b600081519050919050565b600082825260208201905092915050565b60005b83811015612ef8578082015181840152602081019050612edd565b83811115612f07576000848401525b50505050565b6000601f19601f8301169050919050565b6000612f2982612ebe565b612f338185612ec9565b9350612f43818560208601612eda565b612f4c81612f0d565b840191505092915050565b60006020820190508181036000830152612f718184612f1e565b905092915050565b6000819050919050565b612f8c81612f79565b8114612f9757600080fd5b50565b600081359050612fa981612f83565b92915050565b600060208284031215612fc557612fc4612df9565b5b6000612fd384828501612f9a565b91505092915050565b600073ffffffffffffffffffffffffffffffffffffffff82169050919050565b600061300782612fdc565b9050919050565b61301781612ffc565b82525050565b6000602082019050613032600083018461300e565b92915050565b61304181612ffc565b811461304c57600080fd5b50565b60008135905061305e81613038565b92915050565b6000806040838503121561307b5761307a612df9565b5b60006130898582860161304f565b925050602061309a85828601612f9a565b9150509250929050565b6130ad81612f79565b82525050565b60006020820190506130c860008301846130a4565b92915050565b6000806000606084860312156130e7576130e6612df9565b5b60006130f58682870161304f565b93505060206131068682870161304f565b925050604061311786828701612f9a565b9150509250925092565b61312a81612e88565b811461313557600080fd5b50565b60008135905061314781613121565b92915050565b60006020828403121561316357613162612df9565b5b600061317184828501613138565b91505092915050565b6000602082840312156131905761318f612df9565b5b600061319e8482850161304f565b91505092915050565b600081519050919050565b600082825260208201905092915050565b6000819050602082019050919050565b6131dc81612f79565b82525050565b60006131ee83836131d3565b60208301905092915050565b6000602082019050919050565b6000613212826131a7565b61321c81856131b2565b9350613227836131c3565b8060005b8381101561325857815161323f88826131e2565b975061324a836131fa565b92505060018101905061322b565b5085935050505092915050565b6000602082019050818103600083015261327f8184613207565b905092915050565b600080fd5b600080fd5b7f4e487b7100000000000000000000000000000000000000000000000000000000600052604160045260246000fd5b6132c982612f0d565b810181811067ffffffffffffffff821117156132e8576132e7613291565b5b80604052505050565b60006132fb612def565b905061330782826132c0565b919050565b600067ffffffffffffffff82111561332757613326613291565b5b61333082612f0d565b9050602081019050919050565b82818337600083830152505050565b600061335f61335a8461330c565b6132f1565b90508281526020810184848401111561337b5761337a61328c565b5b61338684828561333d565b509392505050565b600082601f8301126133a3576133a2613287565b5b81356133b384826020860161334c565b91505092915050565b6000602082840312156133d2576133d1612df9565b5b600082013567ffffffffffffffff8111156133f0576133ef612dfe565b5b6133fc8482850161338e565b91505092915050565b6000806040838503121561341c5761341b612df9565b5b600061342a8582860161304f565b925050602061343b85828601613138565b9150509250929050565b600067ffffffffffffffff8211156134605761345f613291565b5b61346982612f0d565b9050602081019050919050565b600061348961348484613445565b6132f1565b9050828152602081018484840111156134a5576134a461328c565b5b6134b084828561333d565b509392505050565b600082601f8301126134cd576134cc613287565b5b81356134dd848260208601613476565b91505092915050565b60008060008060808587031215613500576134ff612df9565b5b600061350e8782880161304f565b945050602061351f8782880161304f565b935050604061353087828801612f9a565b925050606085013567ffffffffffffffff81111561355157613550612dfe565b5b61355d878288016134b8565b91505092959194509250565b600080604083850312156135805761357f612df9565b5b600061358e8582860161304f565b925050602061359f8582860161304f565b9150509250929050565b7f4e487b7100000000000000000000000000000000000000000000000000000000600052602260045260246000fd5b600060028204905060018216806135f057607f821691505b60208210811415613604576136036135a9565b5b50919050565b7f4552433732313a20617070726f76616c20746f2063757272656e74206f776e6560008201527f7200000000000000000000000000000000000000000000000000000000000000602082015250565b6000613666602183612ec9565b91506136718261360a565b604082019050919050565b6000602082019050818103600083015261369581613659565b9050919050565b7f4552433732313a20617070726f76652063616c6c6572206973206e6f7420746f60008201527f6b656e206f776e6572206f7220617070726f76656420666f7220616c6c000000602082015250565b60006136f8603d83612ec9565b91506137038261369c565b604082019050919050565b60006020820190508181036000830152613727816136eb565b9050919050565b7f4552433732313a2063616c6c6572206973206e6f7420746f6b656e206f776e6560008201527f72206f7220617070726f76656400000000000000000000000000000000000000602082015250565b600061378a602d83612ec9565b91506137958261372e565b604082019050919050565b600060208201905081810360008301526137b98161377d565b9050919050565b7f455243373231456e756d657261626c653a206f776e657220696e646578206f7560008201527f74206f6620626f756e6473000000000000000000000000000000000000000000602082015250565b600061381c602b83612ec9565b9150613827826137c0565b604082019050919050565b6000602082019050818103600083015261384b8161380f565b9050919050565b600081905092915050565b50565b600061386d600083613852565b91506138788261385d565b600082019050919050565b600061388e82613860565b9150819050919050565b7f4e487b7100000000000000000000000000000000000000000000000000000000600052603260045260246000fd5b7f4e487b7100000000000000000000000000000000000000000000000000000000600052601160045260246000fd5b600061390182612f79565b91507fffffffffffffffffffffffffffffffffffffffffffffffffffffffffffffffff821415613934576139336138c7565b5b600182019050919050565b7f455243373231456e756d657261626c653a20676c6f62616c20696e646578206f60008201527f7574206f6620626f756e64730000000000000000000000000000000000000000602082015250565b600061399b602c83612ec9565b91506139a68261393f565b604082019050919050565b600060208201905081810360008301526139ca8161398e565b9050919050565b7f4552433732313a20696e76616c696420746f6b656e2049440000000000000000600082015250565b6000613a07601883612ec9565b9150613a12826139d1565b602082019050919050565b60006020820190508181036000830152613a36816139fa565b9050919050565b7f4552433732313a2061646472657373207a65726f206973206e6f74206120766160008201527f6c6964206f776e65720000000000000000000000000000000000000000000000602082015250565b6000613a99602983612ec9565b9150613aa482613a3d565b604082019050919050565b60006020820190508181036000830152613ac881613a8c565b9050919050565b6000613ada82612f79565b9150613ae583612f79565b9250827fffffffffffffffffffffffffffffffffffffffffffffffffffffffffffffffff03821115613b1a57613b196138c7565b5b828201905092915050565b7f4d696e74696e67206e6f7720616c6c6f77656420796574000000000000000000600082015250565b6000613b5b601783612ec9565b9150613b6682613b25565b602082019050919050565b60006020820190508181036000830152613b8a81613b4e565b9050919050565b7f4f6e6c792031206d696e7420706572206163636f756e74000000000000000000600082015250565b6000613bc7601783612ec9565b9150613bd282613b91565b602082019050919050565b60006020820190508181036000830152613bf681613bba565b9050919050565b6000613c0882612f79565b9150613c1383612f79565b9250817fffffffffffffffffffffffffffffffffffffffffffffffffffffffffffffffff0483118215151615613c4c57613c4b6138c7565b5b828202905092915050565b6000613c6282612f79565b9150613c6d83612f79565b925082821015613c8057613c7f6138c7565b5b828203905092915050565b7f4552433732314d657461646174613a2055524920717565727920666f72206e6f60008201527f6e6578697374656e7420746f6b656e0000000000000000000000000000000000602082015250565b6000613ce7602f83612ec9565b9150613cf282613c8b565b604082019050919050565b60006020820190508181036000830152613d1681613cda565b9050919050565b600081905092915050565b6000613d3382612ebe565b613d3d8185613d1d565b9350613d4d818560208601612eda565b80840191505092915050565b60008190508160005260206000209050919050565b60008154613d7b816135d8565b613d858186613d1d565b94506001821660008114613da05760018114613db157613de4565b60ff19831686528186019350613de4565b613dba85613d59565b60005b83811015613ddc57815481890152600182019150602081019050613dbd565b838801955050505b50505092915050565b6000613df98286613d28565b9150613e058285613d28565b9150613e118284613d6e565b9150819050949350505050565b7f4f776e61626c653a206e6577206f776e657220697320746865207a65726f206160008201527f6464726573730000000000000000000000000000000000000000000000000000602082015250565b6000613e7a602683612ec9565b9150613e8582613e1e565b604082019050919050565b60006020820190508181036000830152613ea981613e6d565b9050919050565b7f4552433732313a207472616e736665722066726f6d20696e636f72726563742060008201527f6f776e6572000000000000000000000000000000000000000000000000000000602082015250565b6000613f0c602583612ec9565b9150613f1782613eb0565b604082019050919050565b60006020820190508181036000830152613f3b81613eff565b9050919050565b7f4552433732313a207472616e7366657220746f20746865207a65726f2061646460008201527f7265737300000000000000000000000000000000000000000000000000000000602082015250565b6000613f9e602483612ec9565b9150613fa982613f42565b604082019050919050565b60006020820190508181036000830152613fcd81613f91565b9050919050565b7f4f776e61626c653a2063616c6c6572206973206e6f7420746865206f776e6572600082015250565b600061400a602083612ec9565b915061401582613fd4565b602082019050919050565b6000602082019050818103600083015261403981613ffd565b9050919050565b7f4552433732313a20617070726f766520746f2063616c6c657200000000000000600082015250565b6000614076601983612ec9565b915061408182614040565b602082019050919050565b600060208201905081810360008301526140a581614069565b9050919050565b7f4552433732313a207472616e7366657220746f206e6f6e20455243373231526560008201527f63656976657220696d706c656d656e7465720000000000000000000000000000602082015250565b6000614108603283612ec9565b9150614113826140ac565b604082019050919050565b60006020820190508181036000830152614137816140fb565b9050919050565b7f4e487b7100000000000000000000000000000000000000000000000000000000600052601260045260246000fd5b7f455243373231456e756d657261626c653a20636f6e736563757469766520747260008201527f616e7366657273206e6f7420737570706f727465640000000000000000000000602082015250565b60006141c9603583612ec9565b91506141d48261416d565b604082019050919050565b600060208201905081810360008301526141f8816141bc565b9050919050565b600081519050919050565b600082825260208201905092915050565b6000614226826141ff565b614230818561420a565b9350614240818560208601612eda565b61424981612f0d565b840191505092915050565b6000608082019050614269600083018761300e565b614276602083018661300e565b61428360408301856130a4565b8181036060830152614295818461421b565b905095945050505050565b6000815190506142af81612e2f565b92915050565b6000602082840312156142cb576142ca612df9565b5b60006142d9848285016142a0565b91505092915050565b7f4e487b7100000000000000000000000000000000000000000000000000000000600052603160045260246000fd5b7f4552433732313a206d696e7420746f20746865207a65726f2061646472657373600082015250565b6000614347602083612ec9565b915061435282614311565b602082019050919050565b600060208201905081810360008301526143768161433a565b9050919050565b7f4552433732313a20746f6b656e20616c7265616479206d696e74656400000000600082015250565b60006143b3601c83612ec9565b91506143be8261437d565b602082019050919050565b600060208201905081810360008301526143e2816143a6565b905091905056fea264697066735822122095d6207a9f7dee2bd1e39bb85fdc8b62079c54787771c9305640a4aa9f3a075864736f6c63430008090033",
  "immutableReferences": {},
  "source": "// SPDX-License-Identifier: MIT\npragma solidity ^0.8.0;\n\nimport \"@openzeppelin/contracts/utils/introspection/IERC165.sol\";\nimport \"@openzeppelin/contracts/token/ERC721/IERC721.sol\";\nimport \"@openzeppelin/contracts/token/ERC721/extensions/IERC721Enumerable.sol\";\nimport \"@openzeppelin/contracts/utils/introspection/ERC165.sol\";\nimport \"@openzeppelin/contracts/utils/Strings.sol\";\nimport \"@openzeppelin/contracts/utils/Address.sol\";\nimport \"@openzeppelin/contracts/token/ERC721/extensions/IERC721Metadata.sol\";\nimport \"@openzeppelin/contracts/token/ERC721/IERC721Receiver.sol\";\nimport \"@openzeppelin/contracts/utils/Context.sol\";\nimport \"@openzeppelin/contracts/token/ERC721/ERC721.sol\";\nimport \"@openzeppelin/contracts/token/ERC721/extensions/ERC721Enumerable.sol\";\nimport \"@openzeppelin/contracts/access/Ownable.sol\";\n\ncontract CrypticPunks is ERC721Enumerable, Ownable {\n    using Strings for uint256;\n\n    string baseURI;\n    string public baseExtension = \".json\";\n    uint256 public cost;\n    uint256 public maxSupply;\n    uint256 public maxMintAmount = 1;\n    uint256 public timeDeployed;\n    uint256 public allowMintingAfter = 0;\n    bool public isPaused = false;\n    bool public isRevealed = true;\n    string public notRevealedUri;\n\n    constructor(\n        string memory _name,\n        string memory _symbol,\n        uint256 _cost,\n        uint256 _maxSupply,\n        uint256 _allowMintingOn,\n        string memory _initBaseURI,\n        string memory _initNotRevealedUri\n    ) ERC721(_name, _symbol) {\n        if (_allowMintingOn > block.timestamp) {\n            allowMintingAfter = _allowMintingOn - block.timestamp;\n        }\n\n        cost = _cost;\n        maxSupply = _maxSupply;\n        timeDeployed = block.timestamp;\n\n        setBaseURI(_initBaseURI);\n        setNotRevealedURI(_initNotRevealedUri);\n    }\n\n    // internal\n    function _baseURI() internal view virtual override returns (string memory) {\n        return baseURI;\n    }\n\n    // public\n    function mint(uint256 _mintAmount) public payable {\n        require(\n            block.timestamp >= timeDeployed + allowMintingAfter,\n            \"Minting now allowed yet\"\n        );\n\n        require(balanceOf(msg.sender) == 0, \"Only 1 mint per account\");\n\n        uint256 supply = totalSupply();\n        require(!isPaused);\n        require(_mintAmount > 0);\n        require(_mintAmount <= maxMintAmount);\n        require(supply + _mintAmount <= maxSupply);\n\n        if (msg.sender != owner()) {\n            require(msg.value >= cost * _mintAmount);\n        }\n\n        for (uint256 i = 1; i <= _mintAmount; i++) {\n            _safeMint(msg.sender, supply + i);\n        }\n    }\n\n    function walletOfOwner(address _owner)\n        public\n        view\n        returns (uint256[] memory)\n    {\n        uint256 ownerTokenCount = balanceOf(_owner);\n        uint256[] memory tokenIds = new uint256[](ownerTokenCount);\n        for (uint256 i; i < ownerTokenCount; i++) {\n            tokenIds[i] = tokenOfOwnerByIndex(_owner, i);\n        }\n        return tokenIds;\n    }\n\n    function tokenURI(uint256 tokenId)\n        public\n        view\n        virtual\n        override\n        returns (string memory)\n    {\n        require(\n            _exists(tokenId),\n            \"ERC721Metadata: URI query for nonexistent token\"\n        );\n\n        if (isRevealed == false) {\n            return notRevealedUri;\n        }\n\n        string memory currentBaseURI = _baseURI();\n        return\n            bytes(currentBaseURI).length > 0\n                ? string(\n                    abi.encodePacked(\n                        currentBaseURI,\n                        tokenId.toString(),\n                        baseExtension\n                    )\n                )\n                : \"\";\n    }\n\n    function getSecondsUntilMinting() public view returns (uint256) {\n        if (block.timestamp < timeDeployed + allowMintingAfter) {\n            return (timeDeployed + allowMintingAfter) - block.timestamp;\n        } else {\n            return 0;\n        }\n    }\n\n    // Only Owner Functions\n    function setIsRevealed(bool _state) public onlyOwner {\n        isRevealed = _state;\n    }\n\n    function setCost(uint256 _newCost) public onlyOwner {\n        cost = _newCost;\n    }\n\n    function setmaxMintAmount(uint256 _newmaxMintAmount) public onlyOwner {\n        maxMintAmount = _newmaxMintAmount;\n    }\n\n    function setNotRevealedURI(string memory _notRevealedURI) public onlyOwner {\n        notRevealedUri = _notRevealedURI;\n    }\n\n    function setBaseURI(string memory _newBaseURI) public onlyOwner {\n        baseURI = _newBaseURI;\n    }\n\n    function setBaseExtension(string memory _newBaseExtension)\n        public\n        onlyOwner\n    {\n        baseExtension = _newBaseExtension;\n    }\n\n    function setIsPaused(bool _state) public onlyOwner {\n        isPaused = _state;\n    }\n\n    function withdraw() public payable onlyOwner {\n        (bool success, ) = payable(msg.sender).call{\n            value: address(this).balance\n        }(\"\");\n        require(success);\n    }\n}\n",
  "sourcePath": "/Users/kodiasteerforth/Desktop/cryptic_punks-master/src/contracts/CrypticPunks.sol",
  "compiler": {
    "name": "solc",
    "version": "0.8.9+commit.e5eed63a.Emscripten.clang"
  },
  "schemaVersion": "3.4.11",
  "updatedAt": "2022-12-14T05:56:50.269Z",
  "networkType": "ethereum",
  "devdoc": {
    "kind": "dev",
    "methods": {
      "approve(address,uint256)": {
        "details": "See {IERC721-approve}."
      },
      "balanceOf(address)": {
        "details": "See {IERC721-balanceOf}."
      },
      "getApproved(uint256)": {
        "details": "See {IERC721-getApproved}."
      },
      "isApprovedForAll(address,address)": {
        "details": "See {IERC721-isApprovedForAll}."
      },
      "name()": {
        "details": "See {IERC721Metadata-name}."
      },
      "owner()": {
        "details": "Returns the address of the current owner."
      },
      "ownerOf(uint256)": {
        "details": "See {IERC721-ownerOf}."
      },
      "renounceOwnership()": {
        "details": "Leaves the contract without owner. It will not be possible to call `onlyOwner` functions anymore. Can only be called by the current owner. NOTE: Renouncing ownership will leave the contract without an owner, thereby removing any functionality that is only available to the owner."
      },
      "safeTransferFrom(address,address,uint256)": {
        "details": "See {IERC721-safeTransferFrom}."
      },
      "safeTransferFrom(address,address,uint256,bytes)": {
        "details": "See {IERC721-safeTransferFrom}."
      },
      "setApprovalForAll(address,bool)": {
        "details": "See {IERC721-setApprovalForAll}."
      },
      "supportsInterface(bytes4)": {
        "details": "See {IERC165-supportsInterface}."
      },
      "symbol()": {
        "details": "See {IERC721Metadata-symbol}."
      },
      "tokenByIndex(uint256)": {
        "details": "See {IERC721Enumerable-tokenByIndex}."
      },
      "tokenOfOwnerByIndex(address,uint256)": {
        "details": "See {IERC721Enumerable-tokenOfOwnerByIndex}."
      },
      "tokenURI(uint256)": {
        "details": "See {IERC721Metadata-tokenURI}."
      },
      "totalSupply()": {
        "details": "See {IERC721Enumerable-totalSupply}."
      },
      "transferFrom(address,address,uint256)": {
        "details": "See {IERC721-transferFrom}."
      },
      "transferOwnership(address)": {
        "details": "Transfers ownership of the contract to a new account (`newOwner`). Can only be called by the current owner."
      }
    },
    "version": 1
  },
  "userdoc": {
    "kind": "user",
    "methods": {},
    "version": 1
  }
}